:020000040800F2
:10000000980B00203904000841040008430400084C
:1000100045040008470400084904000800000000E7
:100020000000000000000000000000004B04000879
:100030004D040008000000004F04000851040008AF
:100040005304000853040008530400085304000834
:100050005304000853040008530400085304000824
:100060005304000853040008530400085304000814
:100070005304000853040008530400085304000804
:1000800053040008530400085304000853040008F4
:1000900053040008530400085304000853040008E4
:1000A00053040008530400085304000853040008D4
:1000B00053040008530400085304000853040008C4
:1000C00053040008530400085304000853040008B4
:1000D00053040008530400085304000853040008A4
:1000E0005304000853040008530400085304000894
:1000F0005304000853040008530400085304000884
:100100005304000853040008530400085304000873
:100110005304000853040008530400085304000863
:100120005304000853040008530400085304000853
:100130005304000853040008530400085304000843
:100140005304000853040008530400085304000833
:100150005304000853040008530400085304000823
:100160005304000853040008530400085304000813
:100170005304000853040008530400085304000803
:10018000530400085304000800F002F800F03CF8A3
:100190000AA090E8000C82448344AAF10107DA45E2
:1001A00001D100F031F8AFF2090EBAE80F0013F0F8
:1001B000010F18BFFB1A43F001031847805C0000D1
:1001C000A05C0000103A24BF78C878C1FAD8520762
:1001D00024BF30C830C144BF04680C6070470000C1
:1001E0000023002400250026103A28BF78C1FBD840
:1001F000520728BF30C148BF0B6070471FB503F0DE
:10020000D0FE1FBD10B510BD03F092FE1146FFF7E2
:10021000F5FF01F053F803F0B0FE03B4FFF7F2FF6F
:1002200003BC03F0B7FE00000CB500200190009065
:100230007648006840F480307449086000BF734815
:10024000006800F4003000900198401C0190009874
:1002500018B90198B0F5A04FF1D16C48006800F4CE
:10026000003010B10120009001E0002000900098C3
:10027000012846D165484030006840F0805063490D
:10028000403108606248006840F4404060490860BE
:100290005E48083000685D4908310860084600681B
:1002A00040F4004008600846006840F4A050086030
:1002B0005848091F0860081F006840F08070091F37
:1002C000086000BF5148006800F000700028F9D0B5
:1002D00040F20570504908604C480830006820F032
:1002E00003004A49083108600846006840F00200EF
:1002F000086000BF45480830006800F00C0008287E
:10030000F8D10CBD10B54548006840F47000434971
:1003100008603E48006840F001003C490860002049
:100320003A4908310860394800683D490840374972
:1003300008603C48091D0860081F006820F4802000
:10034000091F0860002031490C310860FFF76CFF7D
:100350004FF0006031498039086010BD70B5002051
:100360000022022300240221284D08352D6805F0C3
:100370000C0020B1042806D0082834D107E02A4D0B
:100380002A4E356033E02A4D284E35602FE01F4D50
:100390002D1D2D68C5F380541C4D2D1D2D6805F0B5
:1003A0003F0154B1224DB5FBF1F5184E361D3668AC
:1003B000C6F3881605FB06F209E01B4DB5FBF1F507
:1003C000124E361D3668C6F3881605FB06F20F4D31
:1003D0002D1D2D68C5F301456D1C6B00B2FBF3F5B7
:1003E000124E356003E0104D104E356000BF00BF67
:1003F000064D08352D68C5F303150E4E705D0B4D87
:100400002D68C540094E356070BD000000380240BF
:100410000070004019544007003C024088ED00E0A5
:10042000FFFFF6FE103000240024F400000000203E
:1004300040787D01040000200948804709480047B2
:10044000FEE7FEE7FEE7FEE7FEE7FEE7FEE7FEE784
:10045000FEE7FEE704480549054A064B70470000E1
:10046000050300088901000898050020980B00206A
:10047000980700209807002010B504469848844249
:1004800008D10121084600F086FB0021012000F080
:1004900082FB76E09348844208D10121022000F0DB
:1004A0007AFB0021022000F076FB6AE08E4884424D
:1004B00008D10121042000F06EFB0021042000F08F
:1004C0006AFB5EE08948844208D10121082000F0DF
:1004D00062FB0021082000F05EFB52E08448844269
:1004E00008D10121102000F056FB0021102000F05F
:1004F00052FB46E07F48844208D10121202000F0D1
:100500004AFB0021202000F046FB3AE07A48844272
:1005100008D10121402000F03EFB0021402000F0E6
:100520003AFB2EE07548844208D10121802000F07A
:1005300032FB0021802000F02EFB22E07048844234
:1005400008D10121801500F026FB0021A01500F044
:1005500022FB16E06B48844208D10121401500F0CF
:100560001AFB0021601500F016FB0AE06648844281
:1005700007D10121001500F00EFB0021201500F02D
:100580000AFB10BDF0B50A4600210023002400BF7D
:100590003DE0012505FA01F3156805EA03049C42D4
:1005A00034D105684F000326BE40B5430560157978
:1005B0004E00B5400668354305601579012D02D01F
:1005C0001579022D16D185684F000326BE40B5432C
:1005D000856055794E00B54086683543856045682D
:1005E00001268E40B5434560456896798E40B6B287
:1005F00035434560C5684F000326BE40B543C5601E
:10060000D5794E00B540C6683543C560491C1029F0
:10061000BFD3F0BD4FF6FF71016000210171417140
:100620008171C171704708B54FF480320092009A11
:100630000A430092009AC261C161009AC261C26914
:100640000092C269009208BD0246002013690B4067
:100650000BB1012000E0002070470146086980B21C
:1006600070470246002053690B400BB1012000E0A7
:10067000002070470146486980B270470183704787
:10068000418370470AB1018300E0418370474161B3
:10069000704742694A4042617047F0B50023002428
:1006A0004D07ED0E02FA05F3CE1000F1200555F8C6
:1006B00026504E07F70E0F26BE40B543CF1000F16F
:1006C000200646F82750CE1000F1200555F8265098
:1006D00045EA0304CE1000F1200545F82640F0BDA0
:1006E000000002400004024000080240000C0240EA
:1006F000001002400014024000180240001C02409A
:10070000002002400024024000280240F94800680E
:1007100040F00100F74908600020F6490831086000
:10072000F4480068F4490840F2490860F348091D9C
:100730000860F348EF4984310860F0481038091D1B
:100740000860EC48006820F48020EA490860002036
:10075000E8490C310860E7498C3108607047002196
:10076000E44A921C117011460870704710B501469A
:100770000022002300204A11012A02D1DD4C236807
:1007800008E0022A03D1DB4C7034236802E0D94C24
:100790007434236801F01F02012494401C400CB102
:1007A000012000E0002010BD38B50020009000249A
:1007B000002500BF3120FFF7D9FF05460098401CF7
:1007C00000900098B0F5A04F01D0002DF2D031205C
:1007D000FFF7CCFF08B1012400E00024204638BD1B
:1007E00001460020C34A106820F0F80040EAC1002A
:1007F00010607047C349086070470021BD4A7032DD
:1008000011701170012802D004280AD104E00121DE
:10081000B84A7032117005E00521B64A7032117085
:1008200000E000BF00BF7047B7490860704770B56F
:10083000049C41EA82150126C6EB530645EA0645AB
:10084000054345EA0465AB4E361D356070BDAD49C4
:1008500008667047820142EA0172A64B84331A602F
:100860007047A8498866704710B5830143EA016361
:1008700043EA02739F4C8834236010BDA149086786
:100880007047A049C864704702460020994B08335E
:10089000186820F0EC6042EA01031843954B0833D6
:1008A0001860704702460020924B0833186820F009
:1008B000784042EA010318438E4B083318607047B2
:1008C000014600208B4A0832106820F003000843DC
:1008D0001060704787480830006800F00C007047CF
:1008E00001460020834A0832106820F0F0000843D7
:1008F00010607047014600207E4A0832106820F4DC
:10090000E05008431060704701460020794A0832E1
:10091000106820F4604040EAC10010607047F0B5F4
:10092000002100220024022500260223714F0837EF
:100930003F6807F00C0121B1042905D0082937D1FF
:1009400005E0724F076036E0714F076033E0694F92
:100950003F1D3F68C7F38056664F3F1D3F6807F055
:100960003F036EB16A4FB7FBF3F7DFF888C10CF1B4
:10097000040CDCF800C0CCF3881C07FB0CF40CE082
:10098000624FB7FBF3F7DFF86CC10CF1040CDCF835
:1009900000C0CCF3881C07FB0CF4564F3F1D3F688A
:1009A000C7F301477F1C7D00B4FBF5F7076002E049
:1009B000564F076000BF00BF4E4F08373F6807F033
:1009C000F0010909534F7A5C0768D7404760494FE7
:1009D00008373F6807F4E051890A4E4F7A5C476850
:1009E000D7408760434F08373F6807F46041490BA1
:1009F000484F7A5C4768D740C760F0BD002100F4DB
:100A00004072B2F5407F0AD13A4A0832116821F4A7
:100A1000F811414A02401143364A08321160354A02
:100A200070321268C0F30B031A43324B70331A60F2
:100A30007047354944390860704733494039086088
:100A4000704736490860704701460020294A8C32B9
:100A5000106820F01F004A1E1043264A8C32106096
:100A6000704701460020234A8C32106820F4F85069
:100A70004A1E40EA02201F4A8C321060704701462D
:100A800000201C4A8C32106820F44010084310608B
:100A9000704701460020174A8C32106820F440004D
:100AA00008431060704701460020124A8C321068DB
:100AB00020F44030084310607047194908607047BF
:100AC00039B10C4A3032126802430A4B30331A6093
:100AD00006E0084A303212688243064B30331A600F
:100AE0007047F9B1034A343212680243014B343380
:100AF0001A601CE000380240FFFFF6EA10300024C4
:100B00000030002000004742800E47420024F400DD
:100B100040787D0114000020FFFCFF0F5C0147427C
:100B2000E01147428F4A126882438E4B1A60704729
:100B300039B18C4A121D126802438A4B1B1D1A6080
:100B400006E0884A121D12688243864B1B1D1A60FC
:100B5000704739B1834A0C3212680243814B0C331F
:100B60001A6006E07F4A0C32126882437D4B0C33D8
:100B70001A60704739B17B4A103212680243794BD0
:100B800010331A6006E0774A103212688243754BC0
:100B900010331A60704739B1724A243A126802431E
:100BA000704B243B1A6006E06E4A243A1268824376
:100BB0006C4B243B1A60704739B16A4A203A12687C
:100BC0000243684B203B1A6006E0664A203A1268EE
:100BD0008243644B203B1A60704739B1614A1C3A2A
:100BE000126802435F4B1C3B1A6006E05D4A1C3AE8
:100BF000126882435B4B1C3B1A60704739B1594AFB
:100C0000143A12680243574B143B1A6006E0554AE7
:100C1000143A12688243534B143B1A60704739B13F
:100C2000504A103A126802434E4B103B1A6006E0DD
:100C30004C4A103A126882434A4B103B1A60704784
:100C400039B1484A1C3212680243464B1C331A60C1
:100C500006E0444A1C3212688243424B1C331A603D
:100C6000704739B13F4A2032126802433D4B20336E
:100C70001A6006E03B4A203212688243394B203327
:100C80001A60704739B1374A243212680243354B33
:100C900024331A6006E0334A243212688243314B0F
:100CA00024331A60704739B12E4A2C32126802433D
:100CB0002C4B2C331A6006E02A4A2C3212688243ED
:100CC000284B2C331A60704739B1264A30321268EB
:100CD0000243244B30331A6006E0224A3032126855
:100CE0008243204B30331A607047012808D11D49D8
:100CF0003C31096841F008011A4A3C32116007E0B2
:100D000018493C31096821F00801164A3C3211604B
:100D1000704739B1134A273A12780243114B273BE7
:100D20001A7006E00F4A273A127882430D4B273B90
:100D30001A7070470B484030006840F080700949D5
:100D400040310860704701460020064A283A126880
:100D50000A400AB1012000E000207047014926390D
:100D6000087070473438024010B50446FB4884428E
:100D700008D101218014FFF752FF0021A014FFF7D2
:100D80004EFF3CE0F648844208D101210014FFF7F1
:100D900035FF00212014FFF731FF30E0F148844295
:100DA00008D10121C013FFF729FF0021E013FFF74D
:100DB00025FF24E0EC48844208D101214014FFF7CC
:100DC0002EFF00216014FFF72AFF18E0E748844255
:100DD00009D101210805FFF722FF00214FF48010FF
:100DE000FFF71DFF0BE0E248844208D101214805CE
:100DF000FFF715FF00214FF40010FFF710FF10BDA3
:100E000010B50022028802F441520B884C8823431B
:100E10008C882343CC8823430C8923434C89234368
:100E20008C892343CC8923431A430280838B4FF25E
:100E3000FF74234083830B8A038210BD2DE9F04F9A
:100E40000025022300244FF001090022002600277C
:100E500094469046B0F81CA04FF2400B0AEA0B0AE9
:100E6000A0F81CA04FF0020AA0F820A0858BD1F8B2
:100E700008A0BAF1020F01D100BF82E0B1F804A0CE
:100E8000BAF1000F02D14FF0010901E04FF0020961
:100E9000DFF8E0A2DAF800A00AF4000ABAF1000FC5
:100EA00009D0DFF8D0A2DAF800A02AF4000ADFF8AF
:100EB000C4B2CBF800A0DFF8BCA20AF17C0ADAF8D1
:100EC00000A0CAF3881CDFF8ACA20AF17C0ADAF8A9
:100ED00000A0CAF30278DFF89CA2AAF1040ADAF8AB
:100EE00000A00AF03F07DFF88CA2AAF1040ADAF8A2
:100EF00000A00AF4800ABAF5800F08D1DFF878A2C2
:100F0000BAFBF7FA0AFB0CFABAFBF8F607E0DFF8CF
:100F10006CA2BAFBF7FA0AFB0CFABAFBF8F6B1F8C6
:100F200006A0BAF5007F0ED14FEA162A0AEB8A0A0C
:100F30004FEA4A0AD1F808B0BAFBFBFA0AF1050AEF
:100F40001FFA8AF20FE04FEA491AB6FBFAFA0AEBE7
:100F50008A0A4FEA4A0AD1F808B0BAFBFBFA0AF14A
:100F6000050A1FFA8AF24FF00A0AB2FBFAF202F0FF
:100F70000104A2EB040ACAF34F034FF6FF7A0AEA10
:100F80000424022B01DBFF2B01DD02230024B1F836
:100F900006A04AEA040A4AEA030AA0F820A0B1F827
:100FA00004A0B1F80CB04AEA0B0AB1F802B04AEA60
:100FB0000B0AB1F800B04AEA0B0A4AF4006A4AEA9E
:100FC00005058583BDE8F08F002101804180818087
:100FD000C180018141818181C181072101827047E6
:100FE0000021018041808180C18002218160002137
:100FF0008181704721B1028842F04002028004E002
:1010000002884FF6BF731A400280704721B1828B6D
:1010100042F48062828304E0828B4FF6FF331A40F1
:101020008283704702884FF2FF731A400280028861
:101030000A4302807047B1F5804F04D1028842F420
:101040008042028004E002884BF6FF731A4002805F
:1010500070474FF6FF62914204D0028842F48072DA
:10106000028004E002884FF6FF631A400280704756
:1010700021B1828842F00402828004E082884FF627
:10108000FB731A408280704721B1828842F01002BF
:10109000828004E082884FF6EF731A4082807047A6
:1010A00030B500220023848B4FF240052C4084830E
:1010B00002240484828B0C88B4F5007F01D00C8854
:1010C00014B94FF4807308E00C88B4F5407F03D066
:1010D0000C88B4F5807F00D100238C888D892C4347
:1010E0004D882C431C4344F400642243828330BD6A
:1010F0000146888970478181704721B1028842F496
:101100000052028004E002884DF6FF731A4002800C
:101110007047018841F480510180704702460020E9
:10112000012901D0108B00E0908A70470146088A9F
:1011300070471AB183880B43838002E083888B4316
:101140008380704730B5002400230C110125A54091
:10115000ABB2AAB185881D43858014E00030014000
:1011600000380040003C0040003401400050014085
:10117000005401400838024040787D010024F4000A
:1011800085889D43858030BD0246002013890B4031
:101190000BB1012000E000207047CA430281704774
:1011A000F0B50246002000240023002501F00F07BF
:1011B0000126BE40B4B20B1101269E40B3B2968800
:1011C00006EA03051689264016B10DB1012000E09C
:1011D0000020F0BD10B5002201F00F040123A34050
:1011E0009AB2D343038110BD1CB53F493F4802F07A
:1011F000E7FD0A2014232922032100903B4801F037
:1012000084FD0A201423292219210090374801F077
:1012100032FD0F2005233A220A210090334800F0C6
:101220000FFA0F2005233A221E2100902F4800F0CC
:10123000C6FA0F20042108232E22CDE90010372101
:101240002A4800F0DEFD0F20042108232E22CDE9DC
:1012500000104B21254800F0FDFE1C2337221146CB
:10126000224801F0DBFC10207F2301225421009052
:101270001E4800F021FF0820182124232622CDE952
:1012800000105A21194801F05AFD1723262258212F
:10129000164801F0DAFC16A30C220221134802F0D2
:1012A00021FA17A318220221104802F01BFA19A3F1
:1012B000242202210D4802F015FA1CBD194A1A49D0
:1012C0000A4801F07EF80DE0084801F088F800BFF8
:1012D000FFF78AFF054801F089F80028F8D164205B
:1012E00000F025F8F0E7000049460008C40000209F
:1012F00048656C6C6F20576F726C642100000000B1
:1013000073746D3332663420646973636F7665720B
:10131000790000006C6364202D20737437393230FB
:10132000000000007B1400084C000020704700B54E
:1013300001464FF47A7201FB02F0FFF7F7FF00BDA0
:1013400000B50120FFF7F2FF00BD00B50A20FFF74E
:10135000EDFF00BD10B5044600BF80216D48FFF7CA
:1013600013FF0128F9D021466A48FFF7C4FE10BDDB
:1013700070B504460D4640216748FFF77FF92846BF
:10138000FFF7E8FF04F0F000FFF7E4FF2107080E85
:10139000FFF7E0FF40216048FFF772F970BD00B52C
:1013A00089B001210846FFF78BFB02208DF8200051
:1013B00000208DF82200A020079000208DF8230047
:1013C00002208DF8210007A95348FFF7DBF805221A
:1013D00011465148FFF761F9052207214E48FFF7F2
:1013E0005CF901210846FFF76BFB01208DF818001E
:1013F00000208DF81A004020059000208DF81B0079
:101400008DF8190005A94448FFF7BCF8402142486F
:10141000FFF736F901210803FFF7ACFB2820ADF8F0
:101420000C000120ADF808000020ADF806000720F0
:10143000ADF810000020ADF804004FF44040ADF8C6
:1014400000000020ADF80E004FF48270ADF80200ED
:101450004FF40070ADF80A0069462E48FFF7D0FC43
:1014600001212C48FFF7C6FD09B000BD002000E0B7
:10147000401C2A498842FBD370472DE9F041804641
:101480000D4614461F46082D40D2DFE805F004053E
:101490000C3F1718202139E0FFF7E8FFFEF732FF75
:1014A000FFF77DFF32E01CB9F8201D49087002E00B
:1014B000FA201B490870FFF748FF27E026E018488C
:1014C00001782046FFF754FFFFF73AFF1EE000BF08
:1014D0003E4640211048FFF7D1F811480078FFF749
:1014E00039FF0CE0317801F0F000FFF733FF31787D
:1014F0000907080EFFF72EFF761C601EC4B2002CF1
:10150000F0DC40210448FFF7BBF800BF00BF01201A
:10151000BDE8F0810030014000000240FFFF5F00A5
:10152000240000202DE9F04781460C4615461E4652
:10153000DDE9087808F0010068B1781BC2B2301903
:10154000C1B2484600F079FF381BC2B27019C1B26F
:10155000484600F072FF08F0020068B1781BC2B282
:10156000301BC1B2484600F068FF381BC2B2701B86
:10157000C1B2484600F061FF08F0080068B1781970
:10158000C2B23019C1B2484600F057FF3819C2B292
:101590007019C1B2484600F050FF08F0040068B16D
:1015A0007819C2B2301BC1B2484600F046FF381964
:1015B000C2B2701BC1B2484600F03FFFBDE8F087E1
:1015C0002DE9FF4F83B08A4617461C46DDF840B030
:1015D0000125281B45B2012002900026301B46B28F
:1015E000700046B24FF00008A14653464A464146B5
:1015F000CDE9007B0398FFF795FF1CE0002D07DB8A
:10160000A9F1010000F0FF09B01C46B2A81945B2CB
:1016100008F1010000F0FF080298801C40B202901F
:101620000298284445B253464A464146CDE9007BDC
:101630000398FFF777FFC845E0DB07B0BDE8F08F00
:101640002DE9F84F81460F4690461D46DDF828A04B
:101650002C46601CC4B226467006060EA8EB040099
:10166000C2B2381BC1B233464846009600F0E4F8D7
:1016700008B9BDE8F88F2B46424639464846CDF8B2
:1016800000A0FFF79DFF00BFF3E72DE9F04781467B
:101690000C4615461E46DDE9087808F0010088B1C1
:1016A000681CC3B2781BC2B23019C1B2484601F0FF
:1016B000CCFA601CC3B2381BC2B27019C1B2484622
:1016C00001F0C3FA08F0020088B1681CC3B2781BAD
:1016D000C2B2301BC1B2484601F0B7FA601CC3B2B7
:1016E000381BC2B2701BC1B2484601F0AEFA08F016
:1016F000080078B1681CC3B23019C1B23A464846F6
:1017000001F0A3FA601CC3B27019C1B23A46484650
:1017100001F09BFA08F0040078B1681CC3B2301BDA
:10172000C1B23A46484601F090FA601CC3B2701B41
:10173000C1B23A46484601F088FABDE8F0872DE983
:10174000FF4F83B08A4617461C46DDF840B001259E
:10175000281B45B2012002900026301B46B27000C3
:1017600046B24FF00008A14653464A464146CDE9ED
:10177000007B0398FFF789FF1CE0002D07DBA9F130
:10178000010000F0FF09B01C46B2A81945B208F1EB
:10179000010000F0FF080298801C40B202900298FD
:1017A000284445B253464A464146CDE9007B03985A
:1017B000FFF76BFFC845E0DB07B0BDE8F08F2DE910
:1017C000F84F81460F4690461D46DDF828A02C466E
:1017D000601CC4B226467006060EA8EB0400C2B216
:1017E000381BC1B233464846009600F025F808B9C8
:1017F000BDE8F88F2B46424639464846CDF800A052
:10180000FFF79DFF00BFF3E710B504468A4209DCED
:10181000A34201DB012010BD9A4201DD0120FAE75D
:101820000020F8E7A34205DB9A4201DD0120F2E740
:101830000020F0E70020EEE72DE9F04704460E46D1
:1018400017469846DDF820903D4605EB0900C5B2E5
:10185000681EC5B23B22115D3922105D2B463A4607
:10186000FFF7D2FF10B90020BDE8F087354605EB41
:101870000800C5B2681EC5B23A22115D94F838005E
:101880002B463246FFF7C0FFEEE72DE9F041054653
:101890000C4616460023324601212846A768B84761
:1018A000BDE8F08170B505460C4600231A4619467E
:1018B0002846A668B04770BD2DE9F04105460C46A4
:1018C00016460023324603212846A768B847BDE8DC
:1018D000F08170B505460C4600231A4604212846BF
:1018E000A668B04770BD70B505460C4600230122BE
:1018F00004212846A668B04770BD2DE9F041054691
:101900000C4616460023324602212846A768B847EF
:10191000BDE8F0812DE9F04105460C46164600234E
:10192000324605212846A768B847BDE8F0812DE971
:10193000F04105460C4616461F463B4632460621F8
:101940002846D4F808C0E047BDE8F0812DE9F04111
:1019500005460C4616461F463B463246072128469A
:10196000D4F808C0E047BDE8F0812DE9F041064613
:101970000F4615464FF0000800BF2C78B8F1000F55
:101980000DD1FF2C08D0224639463046FFF7C2FF62
:10199000002844D1BDE8F0814FF001083FE0FF2C62
:1019A00007D1224639463046FFF7B4FF68BB002016
:1019B000F0E7FE2C00D134E0F02C2EDAE02C06DB30
:1019C00004F00F0239463046FFF797FF25E0D02C90
:1019D00006DB04F00F0239463046FFF76DFF1CE0CE
:1019E000C02C13DB39463046FFF773FF04F00F04B9
:1019F0002401A01CC4B22046FFF799FC39463046AA
:101A0000FFF771FF2046FFF792FC06E0BE2C04DAD8
:101A10007F2C02DC2046FFF78AFC4FF000086D1C8B
:101A2000ABE700BF0120B5E710B50446012010BDAB
:101A300010B5044607290AD2DFE801F005040906BB
:101A40000907080003E002E001E000E000BF00BF7A
:101A5000012010BD2DE9F05F82460D4616469B46DB
:101A60000A2E04D00B2E0DD0152E5DD10BE00322D3
:101A700029465046FFF709FF694A29465046FFF7B5
:101A800074FF51E050E0D5F80490002229465046FA
:101A9000FFF733FF012229465046FFF70DFF99F863
:101AA0000240D9F80880002736E000222946504637
:101AB000FFF723FF3E2229465046FFF72BFF202C3D
:101AC0000BDA44F0800229465046FFF723FF8022BC
:101AD00029465046FFF71EFF0DE0A4F12000C0B2DA
:101AE00040F0800229465046FFF714FF882229461D
:101AF0005046FFF70FFF012229465046FFF7FDFE33
:101B00004346102229465046FFF711FF08F11008FE
:101B1000601CC4B2781CC7B2082FC6DB002229465D
:101B20005046FFF7C9FE00BF00BF5B46324629465C
:101B3000504600F0BDFEBDE8F09F2DE9F05F824603
:101B40000D4616469B460A2E04D00B2E0DD0152EA0
:101B50005DD10BE0032229465046FFF796FE304A3E
:101B600029465046FFF701FF51E050E0D5F80490B8
:101B7000002229465046FFF7C0FE01222946504662
:101B8000FFF79AFE99F80240D9F80880002736E05E
:101B9000002229465046FFF7B0FE3E222946504615
:101BA000FFF7B8FE202C0BDA44F08002294650469D
:101BB000FFF7B0FE802229465046FFF7ABFE0DE04E
:101BC000A4F12000C0B240F0800229465046FFF741
:101BD000A1FE882229465046FFF79CFE0122294695
:101BE0005046FFF78AFE4346102229465046FFF72B
:101BF0009EFE08F11008601CC4B2781CC7B2202FEA
:101C0000C6DB002229465046FFF756FE00BF00BF44
:101C10005B4632462946504600F051FFBDE8F09F32
:101C2000225E00082DE9F04781460C4615461E4607
:101C3000DDE9087808F0010030B1781BC2B2301934
:101C4000C1B2484600F0F9FB08F0020030B1781B41
:101C5000C2B2301BC1B2484600F0EFFB08F00800EA
:101C600030B17819C2B23019C1B2484600F0E5FB74
:101C700008F0040030B17819C2B2301BC1B2484636
:101C800000F0DBFBBDE8F0872DE9FF4F85B01C4677
:101C9000129DA2460AFB04F00FFA80FA4FEA4A00AE
:101CA0000FFA80FAAB460BFB05F00FFA80FB4FEA08
:101CB0004B000FFA80FBA0464FF000090126301BB5
:101CC00006B2301B06B206FB05F006B206FB05F0B5
:101CD00006B2274607FB04F007B200200490CDF8B7
:101CE0000CB0DDF80CB00BFB04F000B20390002048
:101CF00002902EE013990798CDE900014A4641462B
:101D0000DDE90503FFF78EFF09F1010000F0FF098F
:101D10000298504400B202900498384400B20490F3
:101D200007EB0A0007B20221049811FB00600028AB
:101D30000FDDA8F1010000F0FF080398A0EB0B00F5
:101D400000B203900498304400B2049006EB0B00FC
:101D500006B2DDE902108842CCDA4FF00008A9464D
:101D60002E4606FB05F006B20127781B07B2781B4A
:101D700007B207FB04F007B207FB04F007B200202C
:101D800004900390CDF808A0DDF808A00AFB05F048
:101D900000B202902EE013990798CDE900014A465F
:101DA0004146DDE90503FFF73DFF08F1010000F0C2
:101DB000FF080398584400B203900498304400B2DE
:101DC000049006EB0B0006B20221049811FB007090
:101DD00000280FDDA9F1010000F0FF090298A0EB37
:101DE0000A0000B202900498384400B2049007EB55
:101DF0000A0007B2DDE902108842CCDD09B0BDE877
:101E0000F08F2DE9FF4F83B0884691461E46109F04
:101E10003446601CC4B2A2464FEA4A604FEA106AD8
:101E20003D46681CC5B2AB464FEA4B604FEA106BAB
:101E3000A9EB0500C2B2A8EB0400C1B25346CDF82D
:101E400000B00398FFF7F8FC10B907B0BDE8F08FB9
:101E5000119833464A464146CDE900700398FFF792
:101E600013FF00BFF1E72DE9F04781460D46144608
:101E70001E46DDE9088707F0010048B1601CC3B2C7
:101E8000A8EB0400C2B27019C1B2484600F0DDFEF2
:101E900007F0020048B1601CC3B2A8EB0400C2B254
:101EA000701BC1B2484600F0D0FE07F0080038B100
:101EB000601CC3B27019C1B24246484600F0C5FE6C
:101EC00007F0040038B1601CC3B2701BC1B24246B7
:101ED000484600F0BAFEBDE8F0872DE9FF4F85B017
:101EE0001C46129DA2460AFB04F00FFA80FA4FEA44
:101EF0004A000FFA80FAAB460BFB05F00FFA80FBA5
:101F00004FEA4B000FFA80FBA0464FF00009012674
:101F1000301B06B2301B06B206FB05F006B206FB0C
:101F200005F006B2274607FB04F007B20020049034
:101F3000CDF80CB0DDF80CB00BFB04F000B2039050
:101F4000002002902EE013990798CDE900014A463F
:101F50004146DDE90503FFF786FF09F1010000F0C6
:101F6000FF090298504400B202900498384400B22D
:101F7000049007EB0A0007B20221049811FB0060ED
:101F800000280FDDA8F1010000F0FF080398A0EB86
:101F90000B0000B203900498304400B2049006EBAA
:101FA0000B0006B2DDE902108842CCDA4FF00008DF
:101FB000A9462E4606FB05F006B20127781B07B29C
:101FC000781B07B207FB04F007B207FB04F007B267
:101FD000002004900390CDF808A0DDF808A00AFBCB
:101FE00005F000B202902EE013990798CDE90001A8
:101FF0004A464146DDE90503FFF735FF08F10100D8
:1020000000F0FF080398584400B20390049830444D
:1020100000B2049006EB0B0006B20221049811FBFB
:10202000007000280FDDA9F1010000F0FF090298FF
:10203000A0EB0A0000B202900498384400B2049069
:1020400007EB0A0007B2DDE902108842CCDD09B0D7
:10205000BDE8F08F2DE9FF4F83B0884691461E46BC
:10206000109F3446601CC4B2A2464FEA4A604FEA51
:10207000106A3D46681CC5B2AB464FEA4B604FEA5A
:10208000106BA9EB0500C2B2A8EB0400C1B2534625
:10209000CDF800B00398FFF7CFFB10B907B0BDE84B
:1020A000F08F119833464A464146CDE900700398B7
:1020B000FFF713FF00BFF1E72DE9FF4F85B00C4696
:1020C00015461E46129F00200190B44203DDA01B5E
:1020D00000F0FF0802E0301B00F0FF08BD4203DD06
:1020E000E81B00F0FF0B02E0781B00F0FF0BC3457C
:1020F0000ADD01200190C146D846CB46A1462C46B8
:102100004D46B1463E464F46B44205DDA1463446F3
:102110004E46A9463D464F464FEA68000390AF42FF
:1021200002DD0120029002E04FF0FF3002900495A2
:10213000A24621E0019828B95146DDE9042000F0CB
:102140007CF904E05246DDE9041000F076F90398CA
:10215000A0EB0B0040B203900398002808DA029924
:1021600004980844C0B204900398404440B20390DD
:102170000AF1010000F0FF0AB245DBDD09B0BDE85D
:10218000F08F00002DE9F04105460C4616461F462B
:102190003B46324621462846D4F800C0E047BDE819
:1021A000F08170B504460D460220616B884700231C
:1021B0000A2229462046FFF7E5FF06460320616B09
:1021C00088470020616B8847304670BD70B5044673
:1021D0000D460220616B88470120616B8847002310
:1021E000142229462046FFF7CDFF04F138031722B9
:1021F00029462046FFF7C6FF0020616B884770BD67
:1022000070B504460E460220616B88470120616B61
:1022100088470023152231462046FFF7B3FF0546C5
:1022200035B104F13803172231462046FFF7AAFFE3
:102230000020616B8847284670BD37B504460D46BF
:1022400002AB0F2229462046FFF79CFF3EBD2DE939
:10225000F0410546884617461E4605F12D042770B5
:1022600066702346322241462846FFF78BFFBDE8C1
:10227000F0812DE9F0470546884616461F46DDE900
:10228000089A05F12D042670677084F8039084F88D
:1022900002A023463B2241462846FFF773FFBDE8D4
:1022A000F0872DE9F0470546884616461F46DDE9CA
:1022B000089A05F12D042670677084F8039084F85D
:1022C00002A023462D2241462846FFF75BFFBDE8CA
:1022D000F08738B504460D466B464622294620460F
:1022E000FFF750FF9DF8000038BD38B504460D4695
:1022F0006B46472229462046FFF744FF9DF8000021
:1023000038BD70B504460D460023482229462046B4
:10231000FFF738FF70BD10B5044620466168FFF72F
:10232000D8FF207020466168FFF7DFFF607020460D
:102330006168FFF7E6FFE07404F1380317222046D6
:102340006168FFF71FFF10BD31221154704710B5AF
:1023500004460020A060E060607401202074222008
:10236000A0740020A06101212046FFF7EDFF204668
:1023700001F0A8FB012004F8280F00206070A07075
:102380004020E070002020719648E060283C10BD9D
:1023900010B5044620466168FFF703FF08B9002026
:1023A00010BD2046FFF7B7FF0120F9E770B50446DE
:1023B0000D462046FFF7CBFF65602046FFF7E8FF9C
:1023C00070BD70B504460E4615462046FFF7BFFFA8
:1023D0006660606885602046FFF7DAFF70BD10B563
:1023E000044620466168FFF7F1FE10BD10B50446B3
:1023F000A06910B12046A169884720466168FFF7AF
:10240000FFFE10BD70B504460D462A4620466168A1
:10241000FFF713FF70BD10B50446002310222046BD
:102420006168FFF7AFFE10BD10B50446002311220E
:1024300020466168FFF7A6FE10BD70B504460D4644
:10244000164633462A4620466168FFF700FF70BDF6
:102450002DE9FC4104460D4616461F46DDF8208056
:10246000CDE9007833462A4620466168FFF701FF30
:10247000BDE8FC812DE9FC4104460D4616461F4689
:10248000DDF82080CDE9007833462A462046616891
:10249000FFF707FFBDE8FC812DE9F84304460D4630
:1024A00017461E46DDF820808DF800508DF801702B
:1024B0008DF802608DF803806B463C2220466168EF
:1024C000FFF760FEBDE8F883312211540B1232226F
:1024D0001354704730B521F007019210DB103124FE
:1024E0002354245C02F0070544EA451531242554A1
:1024F00032242154245CC2F3C2052C4332252C54CF
:1025000030BDF0B504460E4615461F46E07C28282F
:102510000BD106F0E00605F0E005ED10BF1146EA2C
:1025200005003843312108550FE0E07C302806D102
:102530003B462A4631462046FFF7CCFF05E03120D6
:1025400006553220055533200755F0BD0146312090
:10255000405C70470146CA7C282A01D1FF207047A1
:10256000C87C022801D10320F9E70120F7E710B564
:102570000346D87C302805D1FF213120C1543220B8
:10258000C15407E01846FFF7E5FF04462146184608
:10259000FFF7DAFE10BD01460020704710B5034674
:1025A0001846FFF7F8FF044621461846FFF7CCFE11
:1025B00010BD0146CA7C282A01D16D207047C87C15
:1025C000022801D10120F9E70120F7E710B5034601
:1025D0001846FFF7EEFF044621461846FFF7B4FE03
:1025E00010BD0000A72F0008002181700178C17084
:1025F000C178491EC17000210171704710B50346B2
:102600000C461C705A70002018711846FFF7ECFF3A
:1026100010BD014688780B781844887088784B780C
:10262000984201DB002070470879401C0871CA7885
:1026300008781044C2B24878904202DC4A78501EB2
:10264000C2B2CA700120EEE70146886802464B79A3
:102650001A4400BF002300F8013B9042FAD17047B2
:10266000F0B503460C46D878A04201DB012000E01B
:10267000002001469878904201DC012000E0002013
:102680000546944201DD012000E0002006460F4689
:10269000294035403E402943314301F00100F0BD5F
:1026A00030B503465879884201DA012000E0002065
:1026B00004465879904201DA012000E000200546E6
:1026C00014B10DB1002030BD0120FCE770B5064605
:1026D0000C466578E0782844C5B2681EC5B26178BA
:1026E0002A463046FFF7BCFF08B9002070BD2578A8
:1026F000A0782844C5B2681EC5B221782A46304663
:10270000FFF7CEFFF2E700220A7082784A70427922
:102710008A708A78521E8A70C278CA707047F0B583
:1027200007460C4665782E46E07830B1012805D082
:10273000022807D003280AD105E008E006F10800C6
:10274000C6B204E003E0A5F10800C5B200BF00BFB7
:10275000324629463846FFF783FFF0BD70B5044680
:102760000D461646627931462846A368FFF7DFF822
:1027700070BD70B504460E461546A66065712046CC
:10278000FFF762FF70BDF0B5044615461E46A0680F
:10279000A778EF1BFDB26379DB1013FB05F7FBB2E3
:1027A0001844802201F007073A41C91008441EB1BD
:1027B00007781743077004E082F0FF02077817409C
:1027C0000770F0BD30B505460C466078A9788842A0
:1027D00000DA30BD6078E978884200DDF9E72078DA
:1027E0006979884200DBF4E723796278217828460A
:1027F000FFF7C9FF00BFECE770B506460C46A578A9
:1028000000BF05F0800018B121463046FFF7DAFF1F
:10281000E07830B1012808D002280AD0032810D16E
:102820000BE02078401C20700BE06078401C60704A
:1028300007E02078401E207003E06078401E607042
:1028400000BF00BF6806050E002DDAD170BD2DE96E
:10285000F04180460C46A57800260027E07830B18C
:10286000012807D0022808D003280CD108E0701CEA
:10287000C6B208E0781CC7B205E0701EC6B202E01E
:10288000781EC7B200BF00BF00BF05F0800018B1BE
:1028900021464046FFF796FF20783044207060784C
:1028A000384460706806050E002DEED1BDE8F08159
:1028B0002DE9F04180460E4617461C4675683B2FB1
:1028C0001CD00EDC152F31D006DC0A2F25D00B2FA3
:1028D00024D0142F44D122E0172F32D0322F3FD1F1
:1028E00016E0462F32D004DC3C2F35D03D2F37D1B7
:1028F00033E0472F2DD0482F32D12FE021462846F4
:10290000FFF70DFF18B121462846FFF7A0FF27E08B
:1029100021462846FFF756FF22E021E020E0284626
:10292000FFF792FE2846FFF75FFE19E02846FFF703
:1029300070FE10B90020BDE8F0812846FFF784FE44
:102940000EE021462846FFF7DEFE09E06879207098
:1029500006E06878207003E002E001E00120EAE789
:1029600000BF0120E7E70146886802464B7902EB89
:10297000830200BF002300F8013B9042FAD1704768
:1029800070B504460E461546A66065712046FFF7F1
:10299000EAFF70BDF0B5044615461E46A068A7784C
:1029A000EF1BFDB26379DB1013FB05F7BBB21844D4
:1029B000802201F007073A41C91008441EB1077888
:1029C0001743077004E082F0FF0207781740077092
:1029D000F0BD30B505460C466078A978884200DA2B
:1029E00030BD6078E978884200DDF9E720786979C0
:1029F000884200DBF4E72379627821782846FFF7E4
:102A0000C9FF00BFECE770B506460C46A57800BFCD
:102A100005F0800018B121463046FFF7DAFFE07874
:102A200030B1012808D002280AD0032810D10BE0C9
:102A30002078401C20700BE06078401C607007E03C
:102A40002078401E207003E06078401E607000BF58
:102A500000BF6806050E002DDAD170BD2DE9F041EA
:102A600080460C46A57800260027E07830B1012882
:102A700007D0022808D003280CD108E0701CC6B289
:102A800008E0781CC7B205E0701EC6B202E0781EEE
:102A9000C7B200BF00BF00BF05F0800018B12146DB
:102AA0004046FFF796FF2078304420706078384425
:102AB00060706806050E002DEED1BDE8F0812DE9AD
:102AC000F04180460E4617461C4675683B2F1CD0C9
:102AD0000EDC152F31D006DC0A2F25D00B2F24D089
:102AE000142F44D122E0172F32D0322F3FD116E0DD
:102AF000462F32D004DC3C2F35D03D2F37D133E088
:102B0000472F2DD0482F32D12FE021462846FFF7FE
:102B100006FE18B121462846FFF7A0FF27E0214610
:102B20002846FFF756FF22E021E020E02846FFF785
:102B30001AFF2846FFF758FD19E02846FFF769FD00
:102B400010B90020BDE8F0812846FFF70CFF0EE029
:102B500021462846FFF7D7FD09E06879207006E096
:102B60006878207003E002E001E00120EAE700BF9E
:102B70000120E7E72DE9F84307460E4690461C463C
:102B8000FF250CE000234246314638460095FFF70A
:102B90005FFCA4F10800C4B206F10800C6B2082C1C
:102BA000F0DA7CB184F00704601CC4B204F00700C2
:102BB00005FA00F0C5B2002342463146384600957A
:102BC000FFF746FCBDE8F8832DE9F8430746884641
:102BD00016461C46FF250CE0012332464146384686
:102BE0000095FFF735FCA4F10800C4B206F1080017
:102BF000C6B2082CF0DA7CB184F00704601CC4B2C1
:102C000004F0070005FA00F0C5B201233246414640
:102C100038460095FFF71CFCBDE8F883F8B504467C
:102C20000D4616461F4601203B4632462946009077
:102C30002046FEF701FE00B9F8BD3B463246294664
:102C40002046FFF797FF00BFF6E7F8B505460E46AA
:102C500017461C4601233A46314628460094FEF7A3
:102C6000EBFD00B9F8BD23463A4631462846FFF74A
:102C7000ABFF00BFF6E72DE9F84380460C4615464A
:102C80001F46089EA1463B462A46214640460096DE
:102C9000FEF7D2FD08B9BDE8F8833B462A46214637
:102CA0004046FFF767FF33462A4621464046FFF776
:102CB0008BFFE019C4B2601EC4B233462A462146D7
:102CC0004046FFF781FFA819C5B2681EC5B23B4652
:102CD0002A4649464046FFF74DFF00BFDBE72DE996
:102CE000F04106460F4614469846069D00BF4346EF
:102CF000224639463046FFF73DFF601CC4B2681ECD
:102D0000C5B2002DF3D1BDE8F0812DE9F8430546A9
:102D10000E4617469846089C43463A463146284692
:102D20000094FEF789FD08B9BDE8F88343463A46AA
:102D3000314628460094FFF7D2FF00BFF4E72DE9A3
:102D4000FF4F83B00D4616461F46DDE910843B4613
:102D500032462946CDF800800398FEF76DFD10B984
:102D600007B0BDE8F08FAB460BEB040000F0FF0BA3
:102D70000296029E3019C0B20290AA460AEB0700E2
:102D800000F0FF0AAAEB040000F0FF0AAAF101001C
:102D900000F0FF0AB14609EB080000F0FF09A9EBBB
:102DA000040000F0FF09A9F1010000F0FF09022072
:102DB000234600905946DDE90220FEF701FC012080
:102DC000234600905146DDE90220FEF7F9FB04207E
:102DD00023464A46594600900398FEF7F1FB082027
:102DE00023464A46514600900398FEF7E9FBB94650
:102DF000A9EB040000F0FF09A9EB040000F0FF09B3
:102E0000A9F1020000F0FF09C246AAEB040000F09D
:102E1000FF0AAAEB040000F0FF0AAAF1020000F08A
:102E2000FF0A0BF1010000F0FF0B0298401CC0B23A
:102E30000290A8F1010000F0FF08781EC7B24B46CF
:102E4000324659460398FFF795FE06EB0800C2B2DA
:102E50004B4659460398FFF78DFE53462946DDE958
:102E60000220FFF7B1FEE819C1B25346DDE90220A6
:102E7000FFF7AAFE00BF73E72DE9FF4F85B00D46AF
:102E800016469846DDE912744346324629460097B5
:102E90000598FEF7D1FC10B909B0BDE8F08F049594
:102EA000049D2819C0B204900396039E3019C0B245
:102EB0000390AA460AEB080000F0FF0AAAEB040000
:102EC00000F0FF0AAAF1010000F0FF0AB14609EB89
:102ED000070000F0FF09A9EB040000F0FF09A9F1C9
:102EE000010000F0FF09022023460090DDE90321E4
:102EF0000598FEF724FC0120234600905146039AD2
:102F00000598FEF71CFC042023464A460090DDE9A4
:102F10000410FEF714FC082023464A465146009050
:102F20000598FEF70CFCC346ABEB040000F0FF0B6A
:102F3000ABEB040000F0FF0BABF1020000F0FF0B65
:102F40000297029F381BC0B202900298001BC0B2C9
:102F500002900298801EC0B202900498401CC0B239
:102F600004900398401CC0B20390781EC7B2601C46
:102F7000C0B25B4632460090DDE90410FFF7AFFEB9
:102F8000601CC0B25B464A460090DDE90410FFF7C2
:102F9000A6FE0298434600902946039A0598FFF73B
:102FA0009EFE00BF78E7704770B505460C466C631F
:102FB0000320A04770BD704702460A44107870474E
:102FC00002460A441078521C4FF6FF7303EA0020B1
:102FD0001378034498B2704710B504460021204688
:102FE000FFF7EAFF10BD10B504462046FFF7F4FFD7
:102FF00020B1012804D0022806D103E0062010BD2C
:103000000320FCE70620FAE70320F8E710B50446A2
:1030100001212046FFF7D0FF10BD10B50446022164
:103020002046FFF7C9FF10BD10B504460321204616
:10303000FFF7C2FF40B210BD10B504460421204680
:10304000FFF7BAFF40B210BD10B504460521204677
:10305000FFF7B2FF10BD10B5044606212046FFF76A
:10306000AFFF10BD10B5044608212046FFF7A8FFAA
:1030700010BD10B504460A212046FFF79DFF10BD84
:1030800010B504460B212046FFF796FF10BD10B582
:1030900004460C212046FFF78FFF40B210BD10B54B
:1030A00004460D212046FFF787FF40B210BD10B542
:1030B00004460E212046FFF77FFF40B210BD10B539
:1030C00004460F212046FFF777FF40B210BD10B530
:1030D000044610212046FFF76FFF40B210BD70B5C7
:1030E00005460C462846FFF77EFF204470BD2DE9BB
:1030F000F05F05462C462846FFF76EFF0746284638
:10310000FFF771FF80464FF0FF0B2846FFF7B1FF36
:1031100081462846FFF7B4FF8246012F01D14FF0C8
:103120000F0B11344E4600BF2078FF2801D1641CDC
:1031300004E0A07800EA0B0004444444564500D162
:1031400002E0701CC6B2EFE700BF601BBDE8F09F55
:1031500010B50446A068FFF759FF10BD10B504462E
:10316000A068FFF75AFF10BD10B50446A068FFF72E
:103170005BFF10BD10B50446A068FFF75DFF10BDF2
:1031800010B50446A068FFF75FFF10BD70B5044698
:103190000E46A068FFF720FF20B1012813D00228B7
:1031A00010D100E000BF3078E077707884F820001C
:1031B000F07840B22077307940B26077707940B2D1
:1031C000A07715E000BF357805F00F00A077A07F4D
:1031D000801E40B2A0772D116577757805F00F003D
:1031E00084F820002D11E577B5782D11257700BFE3
:1031F00000BF70BD00210177C17780F820104177B2
:10320000817770472DE9FC5F05460F46AC68A868DA
:10321000FFF7E2FE8346A868FFF7E5FE0190FF2076
:103220000090BBF1010F01D10F200090A868FFF7BB
:1032300020FF8246A868FFF723FF8146A868FFF7B2
:1032400011FF0646612F05DB002E03DD34444FF0ED
:10325000610A0CE0A868FFF7FEFE0646412F05DB79
:10326000002E03DD34444FF0410A00E011344F4595
:1032700005DD2846FFF7BEFF0020BDE8FC9FD046D5
:10328000C8451CDC00BF2078FF2801D1641C0DE07C
:10329000B84505D121462846FFF778FF2046ECE7E0
:1032A000A07800990840044401980444C84500D11E
:1032B00004E008F1010000F0FF08E4E700BF284641
:1032C000FFF798FF0020D8E770B504460D46294661
:1032D0002046FFF797FF08B1012070BD0020FCE7F2
:1032E00070B504460D4629462046FFF78BFF08B906
:1032F000002070BD94F91C00FBE72DE9FF4F83B05F
:1033000004468946164620460699FFF77BFF009043
:10331000009818B9002007B0BDE8F08FA0680099A8
:10332000FFF7DDFE8246E57F94F82070607F484419
:1033300000F0FF09A07F301AC6B2701EC6B2F01BA3
:10334000401CC2B22B46494620460097FEF774FA4D
:1033500010B994F91C00DEE7E81DC5B22846E9174C
:1033600005EB5171CD10B046A8EB070000F0FF0847
:1033700008F1010000F0FF084FF0000B22E0CDF84B
:1033800004900020029012E09AF8000000234246C8
:10339000009020460199FFF75BF80AF1010A0198B5
:1033A0000830C0B201900298401CC0B2029002984E
:1033B000A842E9DB08F1010000F0FF080BF1010071
:1033C00000F0FF0BBB45DADB94F91C00A3E72DE905
:1033D000F04104460E4615461F462046616A88475E
:1033E0002844C5B23B462A4631462046FFF785FFB2
:1033F000BDE8F0812DE9FF4F83B004460E469146AB
:1034000020460699FFF7FEFE0090009818B90020AC
:1034100007B0BDE8F08FA0680099FFF760FE824614
:10342000E57F94F82070A07F3044C6B2701CC6B20D
:10343000607F484400F0FF093B464A46314620463B
:103440000095FEF7F9F910B994F91C00E0E7E81DC2
:10345000C5B22846E91705EB5171CD10B04608EB0F
:10346000070000F0FF08A8F1010000F0FF084FF08E
:10347000000B22E0CDF804900020029012E09AF8B0
:1034800000000123009041462046019AFEF7E0FF2C
:103490000AF1010A01980830C0B201900298401C5C
:1034A000C0B202900298A842E9DBA8F1010000F046
:1034B000FF080BF1010000F0FF0BBB45DADB94F9CC
:1034C0001C00A5E72DE9F04104460D4616461F46AF
:1034D0002046616A8847281AC5B23B4632462946CB
:1034E0002046FFF787FFBDE8F0812DE9FF4F83B04D
:1034F00004460F46164620460699FFF783FE0090C5
:10350000009818B9002007B0BDE8F08FA0680099B6
:10351000FFF7E5FD8246E57F94F82080607F381A4A
:10352000C7B2A07F3044C6B2701CC6B2681E381A3B
:10353000C1B22B4632462046CDF80080FEF77CF91A
:1035400010B994F91C00DEE7E81DC5B22846E9175A
:1035500005EB5171CD10B14609EB080000F0FF09F1
:10356000A9F1010000F0FF094FF0000B21E00197E5
:103570000020029012E09AF8000002234A460090D0
:1035800020460199FEF764FF0AF1010A0198083804
:10359000C0B201900298401CC0B202900298A842AA
:1035A000E9DBA9F1010000F0FF090BF1010000F0D7
:1035B000FF0BC345DBDB94F91C00A4E72DE9F041C8
:1035C00004460E4615461F462046616A8847281A5B
:1035D000C5B23B462A4631462046FFF786FFBDE886
:1035E000F0812DE9FF4F83B004460E4690462046F9
:1035F0000699FFF707FE0090009818B9002007B061
:10360000BDE8F08FA0680099FFF769FD8246E57F6D
:1036100094F82070A07F301AC6B2701EC6B2607FC8
:10362000A8EB000000F0FF08681EA8EB0000C2B283
:10363000781E301AC1B23B4620460095FEF7FCF8D2
:1036400010B994F91C00DAE7E81DC5B22846E9175D
:1036500005EB5171CD10B146A9EB070000F0FF0951
:1036600009F1010000F0FF094FF0000B22E0CDF856
:1036700004800020029012E09AF8000003230090DA
:1036800049462046019AFEF7E3FE0AF1010A019835
:103690000838C0B201900298401CC0B20290029853
:1036A000A842E9DB09F1010000F0FF090BF101007C
:1036B00000F0FF0BBB45DADB94F91C009FE72DE916
:1036C000F04104460D4616461F462046616A88476B
:1036D0002844C5B23B46324629462046FFF781FFC3
:1036E000BDE8F0812DE9F04706460F4690461C469E
:1036F0004FF000093046716A8847404400F0FF08E7
:103700000DE02378424639463046FFF7F6FD054680
:103710007819C7B209EB050000F0FF09641C207896
:103720000028EED14846BDE8F0872DE9F04706466F
:103730000F4690461C464FF000093046716A884794
:10374000381AC7B20FE02378424639463046FFF7B1
:1037500051FE054608EB050000F0FF0809EB0500E7
:1037600000F0FF09641C20780028ECD14846BDE831
:10377000F0872DE9F04706460F4690461C464FF06D
:1037800000093046716A8847A8EB000000F0FF0886
:103790000DE02378424639463046FFF7A6FE05463F
:1037A000781BC7B209EB050000F0FF09641C207804
:1037B0000028EED14846BDE8F0872DE9F0470646DF
:1037C0000F4690461C464FF000093046716A884704
:1037D0003844C7B20FE02378424639463046FFF7F7
:1037E00000FF0546A8EB050000F0FF0809EB050007
:1037F00000F0FF09641C20780028ECD14846BDE8A1
:10380000F0872DE9F04105460E4617461C46DDF8C7
:10381000188034B1012C0CD0022C11D0032C1DD1F6
:1038200015E043463A4631462846FFF75BFFBDE8C0
:10383000F08143463A4631462846FFF776FFF6E7E1
:1038400043463A4631462846FFF793FFEFE74346A3
:103850003A4631462846FFF7B0FFE8E70020E6E7A2
:103860002DE9F0470746884691461D464FF0000A6D
:103870003846796A8847484400F0FF0900BF2E782F
:1038800006B910E033464A4641463846FFF735FD53
:10389000044608EB040000F0FF080AEB040000F007
:1038A000FF0A6D1CEBE700BF5046BDE8F0872DE92D
:1038B000F04706460F4690461C464FF0000930463A
:1038C000716A8847381AC7B20FE0237842463946F2
:1038D0003046FFF7F7FD054608EB050000F0FF084E
:1038E00009EB050000F0FF09641C20780028ECD1EA
:1038F0004846BDE8F0872DE9F04706460F4690465A
:103900001C464FF000093046716A8847A8EB00005A
:1039100000F0FF080DE02378424639463046FFF7B5
:103920004DFE0546781BC7B209EB050000F0FF0904
:10393000641C20780028EED14846BDE8F0872DE9C8
:10394000F04706460F4690461C464FF000093046A9
:10395000716A88473844C7B20FE023784246394637
:103960003046FFF7ACFE0546A8EB050000F0FF0867
:1039700009EB050000F0FF09641C20780028ECD159
:103980004846BDE8F0872DE9F84306460C46154643
:103990001F46DDF820803046FFF7E6FB201AC4B250
:1039A0003046FFF7E7FB2844C5B23B462A4621468E
:1039B0003046CDF80080FFF724FFBDE8F8832DE9FD
:1039C000F04106460C4615469846069F3046FFF7DE
:1039D000CBFB201AC4B23046FFF7CCFB2844C5B25B
:1039E0003B462A4621463046FFF787FC0020BDE8CB
:1039F000F08170B50446A06800B970BD94F8280045
:103A000058B9A068FFF720FB40B284F82900A068ED
:103A1000FFF73DFB84F82A0018E094F828000128FD
:103A20000AD1A068FFF74BFB84F82900A068FFF7D4
:103A30004EFB84F82A0009E0A068FFF730FB84F809
:103A40002900A068FFF733FB84F82A0014F9290F36
:103A500094F90110401A85B2A078293C402806D07C
:103A6000EDB294F82B0010FB05F085B2AD1184F88F
:103A70002C5000BFC1E710B50446002084F8280090
:103A80002046FFF7B6FF10BD10B50446012084F8AC
:103A900028002046FFF7ADFF10BD10B504460220F8
:103AA00084F828002046FFF7A4FF10BD70B5044637
:103AB0000D4684F82B502046FFF79BFF70BD014652
:103AC00000207047AFF2090141627047014691F84A
:103AD0002A007047AFF20B0141627047014691F82E
:103AE0002900421CD0B27047AFF20F01416270470B
:103AF000024612F9291F5078081A41B2084601EB14
:103B0000D07359105078293A084441B2C8B270476E
:103B1000AFF22301416270470146087870470146C1
:103B2000087870472DE9F04104468846164600257E
:103B30004046B047074617B92846BDE8F0813946E8
:103B40002046FFF75FFB607F4042C5B200BF08F12F
:103B500001084046B04700B90AE0207F2844C5B2BA
:103B60004046B047074639462046FFF74BFBEEE795
:103B700000BF202F06D0E07F2844C5B2607F2844D4
:103B8000C5B202E0207F2844C5B22846D5E770B50B
:103B900004460D46AFF27F0229462046FFF7C2FFDA
:103BA00070BD70B504460D46AFF28D022946204621
:103BB000FFF7B8FF70BD70B504460D462978204662
:103BC000FFF720FB94F91D0070BD70B504460D464B
:103BD00029782046FFF716FB94F91D0070BD2DE9EA
:103BE000F04106460C46002700BF257805B908E0DD
:103BF00029463046FFF706FB307F3844C7B2641CC5
:103C0000F3E700BF3846BDE8F0812DE9F0410646F4
:103C10000C46002700BF257805B908E02946304644
:103C2000FFF7F0FA307F3844C7B2641CF3E700BFF7
:103C30003846BDE8F0812DE9F04105460E461446B0
:103C400000202071307830B9002020706070A070A2
:103C5000E070BDE8F0817F202070802060703178B6
:103C60002846FFF7CFFA687F40422071687FA07036
:103C7000A87FE07000BF95F91E7094F90000B8426B
:103C800000DD277095F82000384447B294F9010010
:103C9000B84200DA6770761C307800B908E0207905
:103CA000297F0844207131782846FFF7ABFAE2E714
:103CB00000BF2079E97F084420712079697F08449A
:103CC000207100BFC5E770B504460D461646324662
:103CD00029462046FFF7AFFF70BD704770472DE9BA
:103CE000F0470746884614461D46DDE9089A0A9EB5
:103CF00098F800103846FFF785FA2878797F08444D
:103D0000287020798AF8000099F800006178401A3C
:103D100089F800006078307030782178401A30706F
:103D2000BDE8F0872DE9F04385B081460C46154685
:103D30001E46DDE90C78207830B90020387088F80C
:103D4000000005B0BDE8F08303AA21464846FFF70E
:103D500072FF2B4603AA214648468DE8C001FFF7B3
:103D6000BEFF00BFEDE72DE9F04786B005460E46E1
:103D700017469846DDE90E9A307838B9002089F860
:103D800000008AF8000006B0BDE8F087A868FFF7D9
:103D90005BF9044604AA31462846FFF74CFF9DF91B
:103DA0001100A04202DA60B28DF811003B4604AA6D
:103DB000314628468DE80007FFF791FF00BFE2E794
:103DC00070B504460D46A068A84206D0A5602046FE
:103DD000FFF70FFE2046FFF775FE70BD2DE9FF4F80
:103DE00083B004468946164620460699FFF70AFA2C
:103DF0000090009818B9002007B0BDE8F08FA068C7
:103E00000099FFF76CF98246E57F94F82070607F97
:103E1000484400F0FF09A07F301AC6B2701EC6B237
:103E2000F01B401CC2B22B46494620460097FDF7C6
:103E300003FD10B994F91C00DEE7E81CC5B2284662
:103E4000E91705EB91718D10B046A8EB070000F063
:103E5000FF0808F1010000F0FF084FF0000B22E01E
:103E6000CDF804900020029012E09AF800000023A0
:103E70004246009020460199FEF7FCFA0AF1010A39
:103E80000198001DC0B201900298401CC0B202907F
:103E90000298A842E9DB08F1010000F0FF080BF1ED
:103EA000010000F0FF0BBB45DADB94F91C00A3E72F
:103EB0002DE9F04104460E4615461F462046616A2C
:103EC00088472844C5B23B462A4631462046FFF77C
:103ED00085FFBDE8F0812DE9F04706460F46904684
:103EE0001C464FF00009B068FFF776F8022802D0B0
:103EF0000020BDE8F0873046716A8847404400F0F2
:103F0000FF080DE02378424639463046FFF766FF4A
:103F100005467819C7B209EB050000F0FF09641CDB
:103F200020780028EED14846E3E770477047704795
:103F3000754600F02BF8AE4605006946534620F062
:103F40000700854618B020B5FCF784FABDE820408C
:103F50004FF000064FF000074FF000084FF0000B45
:103F600021F00701AC46ACE8C009ACE8C009ACE8F8
:103F7000C009ACE8C0098D46704710B50446AFF3E0
:103F800000802046BDE81040FCF747B90048704764
:103F90003405002001491820ABBEFEE726000200D0
:103FA00070474FF04070E1EE100A704701050800BD
:103FB000FF060121023520FFFF07FF06FF09005021
:103FC000221656808080800080153353A0A0A00266
:103FD00057575050F850F850500257572070A07063
:103FE00028702013355580A040A02002475740A0DC
:103FF000A040A0A0502513538080801226564080F8
:1040000080808040122656804040404080024555C6
:104010009060F060900255552020F8202011335315
:10402000604080044151F011335340E04002465655
:1040300010102040808012365640A0A0A0A0401250
:10404000365640C0404040E00246566090106080C6
:10405000F0024656F020601090600246562060A0A4
:10406000F02020024656F080E01090600246566034
:1040700080E0909060024656F010202040400246BA
:10408000566090609090600246566090907010600C
:10409000122555C0C000C0C0113656606000604097
:1040A00080123656204080804020034353F000F0B9
:1040B00012365680402020408012365640A02040C4
:1040C0000040015858304898A8A890403002465601
:1040D000609090F09090024656E090E09090E00260
:1040E0004656609080809060024656E09090909096
:1040F000E0024656F080E08080F0024656F080E014
:10410000808080024656609080B090600246569053
:1041100090F0909090123656E040404040E00246C9
:104120005670202020A04002465690A0C0A0A0902B
:104130000246568080808080F002465690F0F090D3
:10414000909002465690D0F0B0B0900246566090E3
:1041500090909060024656E09090E0808001475732
:10416000609090D0B06010024656E09090E0909041
:10417000024656609040209060123656E040404023
:104180004040024656909090909060024656909023
:1041900090906060024656909090F0F090024656E3
:1041A000909060609090025656888850202020029F
:1041B0004656F010204080F0123656E08080808015
:1041C000E0024656808040201010123656E0202033
:1041D0002020E016325240A0014151F016225280B8
:1041E00040024454709090700246568080E0909057
:1041F000E012345460808060024656101070909037
:104200007002445460B0C060024656205040E04006
:104210004001455560907010600246568080E090E5
:1042200090901236564000C04040E01137572000B1
:10423000202020A040024656808090E090901236C8
:1042400056C040404040E0025454D0A8A8A80244C0
:1042500054E090909002445460909060014555E085
:1042600090E080800145557090701010024454A079
:10427000D0808012345460C020C00246564040E0D6
:1042800040502002445490909070123454A0A0A04A
:104290004002545488A8A850024454906060900191
:1042A00045559090709060024454F02040F00247D1
:1042B00057304020C02040302216568080808080B9
:1042C00080024757C02040304020C006425250A0D4
:1042D000FFFFFFFFFFFFFFFFFFFFFFFFFFFFFFFFEE
:1042E000FFFFFFFFFFFFFFFFFFFFFFFFFFFFFFFFDE
:1042F000FF090050221656800080808080014656BB
:104300002070A0A070200246562050E04050A0022D
:10431000555588705070880256568850F820F820FD
:10432000221757808080008080800247577080E08D
:10433000907010E0173151A002565670A8C8C8A856
:104340007014355560A06000E003435350A0501234
:104350003353E02020143151E002565670E8D8E87B
:10436000D870173151E015335340A04012355540F5
:10437000E04000E014355540A02040E0143555C021
:1043800020C020C01622524080014555909090E0F8
:104390008002565678E8E8682828241151801122B6
:1043A00052408014355540C04040E014355540A07F
:1043B0004000E0034353A050A0024757808080A0F4
:1043C00060F0200247578080A0D01020700247572D
:1043D00080408060A0F02012365640004080A0400F
:1043E00002475740206090F090900247572040606D
:1043F00090F0909002475760906090F09090024744
:104400005750A06090F0909002475790006090F055
:10441000909002475760906090F0909002465670DE
:10442000A0A0F0A0B001475760908080906040024B
:1044300047574020F080E080F00247572040F0804E
:10444000E080F00247576090F080E080F00247572C
:104450009000F080E080F01237578040E04040400C
:10446000E01237572040E0404040E012375740A06C
:10447000E0404040E0123757A000E0404040E002FA
:1044800056567048E848487002475750A090D0B040
:1044900090900247574020609090906002475720CC
:1044A000406090909060024757609060909090605C
:1044B00002475750A060909090600247579000606C
:1044C00090909060123353A040A002465670B0B056
:1044D000D0D0E0024757402090909090600247571C
:1044E00020409090909060024757609090909090FC
:1044F00060024757900090909090600257571020AC
:10450000885020202002465680E09090E0800246AD
:10451000566090A0A090A002475740200070909055
:10452000700247572040007090907002475720500B
:10453000007090907002475750A0007090907002E9
:10454000465650007090907002475760906070908F
:104550009070025454F068B07811355560808060D6
:104560004002475740200060B0C0600247572040DB
:104570000060B0C06002475760900060B0C0600249
:104580004656500060B0C060123757804000C040AF
:1045900040E0123757204000C04040E012375740FB
:1045A000A000C04040E0123656A000C04040E002EB
:1045B0004757A040A01070906002475750A000E0FD
:1045C00090909002475740200060909060024757BB
:1045D000204000609090600247576090006090908B
:1045E0006002475750A000609090600246569000CD
:1045F000609090601235554000E0004002445470D5
:10460000B0D0E0024757402000909090700247578A
:1046100020400090909070024757609000909090DA
:1046200070024656900090909070014858204000CB
:1046300090907090600147578080E090E08080010A
:1046400047579000909070906001060A00FE0701A5
:1046500036026820FFFE08FE07FE0A006022176788
:1046600080808080800080163363A0A0A0025767FE
:104670005050F850F850500257672070A0702870C2
:104680002002576748A8502050A89002576740A0C2
:10469000A040A8906826136380808012376720406E
:1046A0008080804020123767804020202040800397
:1046B00055658850F850880355652020F820201152
:1046C0003363604080055161F811336340E040027C
:1046D000576708081020408080025767205088885C
:1046E0008850200257672060A0202020F8025767DA
:1046F000708808304080F8025767F8081030088842
:104700007002576710305090F81010025767F88009
:10471000B0C8088870025767304080B0C8887002FF
:104720005767F8081010204040025767708888705B
:10473000888870025767708898680810601137671A
:1047400040E0400040E04011376740E040006040FA
:104750008012476710204080402010045363F80007
:10476000F812476780402010204080025767708809
:104770001020200020025767708898A8B08070022F
:10478000576720508888F88888025767F048487033
:104790004848F002576770888080808870025767A9
:1047A000F04848484848F0025767F88080F0808019
:1047B000F8025767F88080F0808080025767708821
:1047C0008080988870025767888888F8888888125F
:1047D0003767E04040404040E00257673810101013
:1047E0001090600257678890A0C0A0908802576719
:1047F000808080808080F80257678888D8A8888861
:10480000880257678888C8A8988888025767708880
:104810008888888870025767F08888F080808001D7
:1048200058687088888888A87008025767F0888858
:10483000F0A09088025767708880700888700257CF
:1048400067F82020202020200257678888888888E1
:1048500088700257678888885050502002576788B0
:104860008888A8A8D88802576788885020508888E8
:1048700002576788885020202020025767F80810C8
:10488000204080F8123767E08080808080E0025707
:104890006780804020100808123767E02020202021
:1048A00020E0065363205088015161F8282262807D
:1048B0004002556570087888780257678080B0C8D4
:1048C00088C8B002556570888088700257670808EC
:1048D00068988898680255657088F88070025767F4
:1048E000304840F040404000576778888878088812
:1048F000700257678080B0C8888888123767400088
:10490000C0404040E01049691000301010109090F5
:104910006002576780808890E09088123767C040B7
:1049200040404040E0025565D0A8A8A888025565DF
:10493000B0C8888888025565708888887000576775
:10494000B0C888C8B08080005767689888986808A1
:1049500008025565B0C88080800255657080700877
:10496000F00257674040F040404830025565888863
:104970008898680255658888505020025565888857
:10498000A8A850025565885020508800576788882D
:104990009868088870025565F8102040F81247673B
:1049A000304020C020403022176780808080808087
:1049B00080124767C02040304020C006536348A89B
:1049C00090FFFFFFFFFFFFFFFFFFFFFFFFFFFFFF66
:1049D000FFFFFFFFFFFFFFFFFFFFFFFFFFFFFFFFE7
:1049E000FFFF0A00602217678000808080808001BE
:1049F00057672078A0A0A07820025767304840E091
:104A00004048B002556588705070880158688888A1
:104A10005020F8202020221767808080008080802E
:104A20000158687080E09048380870193161A00220
:104A300057677088A8C8A888701346667090B050F1
:104A400000F00265652448904824144262F0101575
:104A50004161F00257677088E8C8C88870095161E1
:104A6000F816336340A0400256662020F82020F854
:104A700015456560902040F0154565E0106010E038
:104A80002822624080015666888888C8B080025714
:104A90006778E8E86828282825116180202262408C
:104AA0008015356540C04040E013466660909060D8
:104AB00000F0026565904824489001696940C04053
:104AC00040E40C143C0401696940C04040E814040F
:104AD000081C015969C0204020C8182878080257CE
:104AE0006720002020408870025868402070888825
:104AF000F888880258681020708888F888880258DA
:104B0000682050708888F8888802586848B0708893
:104B100088F888880258685000708888F888880269
:104B200058682050708888F888880267673C5090E1
:104B30009CF0909C0059697088808080887020402B
:104B400002586840F88080F08080F802586810F8B9
:104B50008080F08080F802586820F88080F08080A3
:104B6000F802586850F88080F08080F81238688029
:104B700040E040404040E01238682040E040404083
:104B800040E012386840A0E040404040E012386801
:104B9000A000E040404040E0025767F04848E84845
:104BA00048F0025868285088C8A898888802586831
:104BB0004020708888888870025868102070888823
:104BC00088887002586820507088888888700258D9
:104BD00068285070888888887002586850007088EB
:104BE0008888887002556588502050880257677001
:104BF0009898A8C8C8700258684020888888888813
:104C00007002586810208888888888700258682048
:104C10005000888888887002586850008888888882
:104C2000887002586810208888502020200257671A
:104C300080F088F0808080025767708890A090880C
:104C4000B0025868402000700878887802586810D0
:104C50002000700878887802586820500070087822
:104C6000887802586828500070087888780257675A
:104C700050007008788878025868205020700878B2
:104C8000887802656578147C907C0057677088800E
:104C9000887020400258684020007088F8807002B8
:104CA00058681020007088F8807002586820500002
:104CB0007088F8807002576750007088F880701212
:104CC0003868804000C0404040E0123868408000B2
:104CD000C0404040E012386840A000C0404040E082
:104CE000123767A000C0404040E0025767C03070F4
:104CF00088888870025868285000B0C88888880260
:104D00005868402000708888887002586810200019
:104D10007088888870025868205000708888887071
:104D200002586828500070888888700257675000C1
:104D300070888888700355652000F800200255654A
:104D40007898A8C8F0025868402000888888986839
:104D50000258681020008888889868025868205097
:104D60000088888898680257675000888888986803
:104D700000596910208888986808887000586880F1
:104D8000F0888888F0808000596950008888986889
:104D900008887000101000FE0A01E703D520FFFE0E
:104DA0000EFE0BFE00000008000E010A0A080400B7
:104DB0008080808080808000808005040408020854
:104DC00088888888060A0A080100242424FC4848A8
:104DD000FC909090070A0A080100107C9290701CC9
:104DE00012927C10070A0A0801006294946810105D
:104DF0002C52528C070A0A08010038444444387285
:104E00008A848C7201040408040880808080030C6A
:104E10000C0803FF2040408080808080804040203C
:104E2000030C0C0802FF804040202020202020405E
:104E30004080070707080101109254385492100768
:104E40000707080101101010FE10101002040408DA
:104E500003FEC0404080060101080104FC0202027A
:104E6000080300C0C0060A0A080100040408101064
:104E70002020408080060A0A08010030488484848B
:104E80008484844830050A0A0802002060A020209B
:104E900020202020F8060A0A0801007884840418DB
:104EA00020408080FC060A0A0801007884840438C7
:104EB0000404848478060A0A08010008182848882F
:104EC00088FC080808060A0A080100FC808080F8AF
:104ED0000404048478060A0A08010038408080F837
:104EE0008484848478060A0A080100FC0404080803
:104EF0000810101010060A0A0801007884848478CB
:104F00008484848478060A0A080100788484847C76
:104F10000404040870020707080301C0C000000071
:104F2000C0C00209090803FFC0C0000000C0404023
:104F30008005090908020008102040804020100860
:104F4000060505080102FC000000FC05090908012E
:104F500000804020100810204080060A0A08010046
:104F600078848404081010001010060A0A08010052
:104F7000384494ACA4A4A49C403C060A0A0801004E
:104F80003048488484FC84848484060A0A0801002A
:104F9000F8848484F884848484F8060A0A0801006A
:104FA00078848480808080848478060A0A080100DE
:104FB000F08884848484848488F0060A0A080100C6
:104FC000FC808080F880808080FC060A0A0801004E
:104FD000FC808080F88080808080060A0A080100BA
:104FE00078848480809C84848C74060A0A0801007A
:104FF00084848484FC8484848484050A0A080200EE
:10500000F82020202020202020F8070A0A0801008C
:105010003E080808080808888870060A0A0801007F
:10502000848890A0C0C0A0908884060A0A08010065
:10503000808080808080808080FC060A0A080100D1
:105040008484CCCCB4B484848484060A0A08010025
:1050500084C4C4A4A494948C8C84060A0A08010015
:1050600078848484848484848478060A0A0801000D
:10507000F8848484F88080808080070B0B0801FF0F
:1050800078848484848484B4CC7806060A0A08016F
:1050900000F8848484F89088888484060A0A0801C9
:1050A0000078848480601804848478070A0A0801E0
:1050B00000FE101010101010101010060A0A08013F
:1050C0000084848484848484848478070A0A0801A0
:1050D0000082828244444428281010060A0A0801EB
:1050E0000084848484B4B4CCCC8484060A0A080185
:1050F0000084844848303048488484070A0A0801FC
:105100000082824444281010101010060A0A080178
:1051100000FC0404081020408080FC030C0C0804F0
:10512000FFE080808080808080808080E0060A0AA6
:1051300008010080804020201010080404030C0C9B
:105140000801FFE020202020202020202020E00651
:1051500003030801093048840701010801FFFE0329
:10516000030308020A80402006080808010078842A
:10517000047C84848C74060B0B080100808080B84A
:10518000C484848484C4B806080808010078848034
:105190008080808478060B0B080100040404748C62
:1051A000848484848C74060808080100788484FC54
:1051B00080808478050B0B08010018202020F8203F
:1051C0002020202020060B0B0801FE04748888880C
:1051D000704078848478060B0B080100808080B8CA
:1051E000C4848484848484050B0B0802002020007E
:1051F00060202020202020F8050D0D0801FE080861
:105200000018080808080808089060060A0A08013B
:105210000080808890A0C0A0908884050A0A0802B7
:1052200000602020202020202020F8070808080106
:1052300000EC92929292929292060808080100B8AD
:10524000C4848484848484060808080100788484E3
:105250008484848478060A0A0801FEB8C48484849D
:1052600084C4B88080060A0A0801FE748C84848491
:10527000848C740404060808080100B8C484808083
:105280008080800608080801007884806018048403
:1052900078050A0A0801002020F82020202020207C
:1052A000180608080801008484848484848C7406A9
:1052B00008080801008484844848483030070808FA
:1052C000080100829292929292926C06080808015C
:1052D000008484483030488484060A0A0801FE8429
:1052E000848484844C34040478060808080100FC93
:1052F000040810204080FC030C0C0803FF60808031
:10530000404080804040808060010E0E0804FE8096
:1053100080808080808080808080808080030C0CF2
:105320000802FFC020204040202040402020C0072D
:10533000030308010862928C1010201000FEAAAA34
:10534000000180000001800073D1CA104BD1CA1047
:1053500073DF8000000180000001800055551010AF
:10536000201000FEAAAA0001800000018000719DAB
:10537000CA5273D3C252425D800000018000000116
:10538000800055551010201000FEAAAA00018000D0
:1053900000018000499DCA527A5DCA50499180003F
:1053A000000180000001800055551010201000FE03
:1053B000AAAA00018000000180007393CA52739F63
:1053C000CA12721380000001800000018000555550
:1053D0001010201000FEAAAA000180000001800029
:1053E0004B93EA525B9FCA524B93800000018000AE
:1053F0000001800055551010201000FEAAAA0001DF
:1054000080000001800074B9A6A425A5A4A474B9E5
:105410008000000180000001800055551010201010
:1054200000FEAAAA00018000000180004BD1EA1012
:105430005BD1CA104BDF80000001800000018000BA
:1054400055551010201000FEAAAA0001800000018E
:10545000800039CDC212319F8852739380000001C1
:1054600080000001800055551010201000FEAAAAEF
:10547000000180000001800079CDC212799FC052E6
:105480007B938000000180000001800055551010C2
:10549000201000FEAAAA00018000000180004B9DA0
:1054A000C9207919C9044939800000018000000130
:1054B000800055551010201000FEAAAA000180009F
:1054C000000180004BB9C9087909C9084931800039
:1054D000000180000001800055551010201000FED2
:1054E000AAAA000180000001800045CDC490448933
:1054F000A8841099800000018000000180005555AB
:105500001010201000FEAAAA0001800000018000F7
:10551000721DCA127213C21243DD800000018000A6
:105520000001800055551010201000FEAAAA0001AD
:105530008000000180007213CA127213C21243CDA0
:1055400080000001800000018000555510102010DF
:1055500000FEAAAA00018000000180000E2189201F
:105560000E218A20092180000001800000018000B6
:1055700055551010201000FEAAAA0001800000015D
:10558000800039DDC202318D8850739F8000000198
:1055900080000001800055551010201000FEAAAABE
:1055A000000180000001800039DDC202318D884297
:1055B000739D80000001800000018000555510108F
:1055C000201000FEAAAA000180000001800071CF17
:1055D000CA104A0DCA0271DD80000001800000017E
:1055E000800055551010201000FEAAAA000180006E
:1055F000000180007245CA4C7245C244418F800050
:10560000000180000001800055551010201000FEA0
:10561000AAAA0001800000018000725DCA42724D9A
:10562000C250419F8000000180000001800055555C
:105630001010201000FEAAAA0001800000018000C6
:105640003B9DC1203119890471398000000180001F
:105650000001800055551010201000FEAAAA00017C
:1056600080000001800039D3C212421FC21239D318
:1056700080000001800000018000555510102010AE
:1056800000FEAAAA00018000000180004511ED1073
:105690005551C5B045118000000180000001800017
:1056A00055551010201000FEAAAA0001800000012C
:1056B00080003B8DC252339F8A127213800000011A
:1056C00080000001800055551010201000FEAAAA8D
:1056D00000018000000180007B8DC2527B9FC212BE
:1056E0007A138000000180000001800055551010E1
:1056F000201000FEAAAA0001800000018000398F5E
:10570000C250324D8A42719D80000001800000012C
:10571000800055551010201000FEAAAA000180003C
:1057200000018000339BC42225A394A2639B8000C8
:10573000000180000001800055551010201000FE6F
:10574000AAAA000180000001800039DDC2083209E8
:105750008A0871DD8000000180000001800055553D
:105760001010201000FEAAAA000180000001800095
:1057700039DDC2084189C0483B9D8000000180009E
:105780000001800055551010201000FEAAAA00014B
:105790008000000180000EF990200C2182201C2145
:1057A000800000018000000180005555101020107D
:1057B00000FEAAAA000180000001800031CFCA10BB
:1057C0004991C850338F80000001800000018000A3
:1057D00055551010201000FEAAAA000180000001FB
:1057E00080007221CB6072A1C220422180000001A2
:1057F00080000001800055551010201000FEAAAA5C
:105800000001800000018000338FCA507B91CA10D4
:105810004A0F800000018000000180005555060DF0
:105820000D080100601800FC808080F88080808076
:10583000FC060E0E08010048480000FC808080F83D
:1058400080808080FC070A0A080100FC2020203CA0
:10585000222222222C060E0E08010018600000FCF5
:10586000808080808080808080060A0A080100385D
:10587000448080F88080804438060A0A0801007855
:10588000848480601804848478050A0A080200F879
:105890002020202020202020F8050E0E0802009055
:1058A000900000F82020202020202020F8060A0A5E
:1058B0000801001C080808080808888870080A0AF7
:1058C000080000784848484E494949498E070A0A65
:1058D00008010090909090FC929292929C070A0A84
:1058E000080100FC2020203C2222222222060E0E4B
:1058F00008010018600000808C90A0C0C0A09088B3
:1059000084060D0D080100601800848C8C9494A40A
:10591000A4C4C484070E0E08010084847800828227
:105920004444282810102060070A0A0801008282D7
:1059300082828282FE101010060A0A080100304896
:1059400048848484FC848484060A0A080100F88060
:105950008080F884848484F8060A0A080100F884A8
:105960008484F884848484F8060A0A080100FC8090
:105970008080808080808080080C0C0800FE0E12E1
:1059800012122222224242FF8181060A0A080100E5
:10599000FC808080F880808080FC070A0A08010073
:1059A00092925454383854549292060A0A080100CC
:1059B00078840404780804048478060A0A0801003C
:1059C000848C8C9494A4A4C4C484060D0D08010096
:1059D000483000848C8C9494A4A4C4C484060A0A1D
:1059E000080100808C90A0C0C0A0908884060A0A9C
:1059F0000801003C242424242424444484060A0A64
:105A00000801008484CCCCB4B484848484060A0A5B
:105A100008010084848484FC8484848484060A0AC3
:105A200008010078848484848484848478060A0A43
:105A3000080100FC848484848484848484060A0AA3
:105A4000080100F8848484F88080808080060A0A37
:105A500008010078848480808080848478070A0A22
:105A6000080100FE101010101010101010070A0A84
:105A700008010082824444282810102060070B0B84
:105A8000080100107C92929292927C101010060AEB
:105A90000A08010084844848303048488484070C50
:105AA0000C0801FE848484848484848484FE02023D
:105AB000060A0A0801008484848484FC0404040423
:105AC000070A0A080100929292929292929292FE92
:105AD000080C0C0800FE929292929292929292FF7F
